:10000000008000101901000015010000110100001E
:100010000D010000090100000501000000000000C2
:1000200000000000000000000000000001010000CE
:10003000FD00000000000000F9000000117D00003C
:10004000F50000003D0C0000F5000000F500000088
:10005000F5000000E97D0000552A0000F50D0000C4
:10006000DD5C0000F500000041500000F5000000DC
:10007000F500000069450000F5000000F5000000F3
:10008000F5000000F5000000F5000000F50000009C
:10009000F5000000F5000000B90C0000F5000000BC
:1000A000F5000000110E0000F5000000F500000052
:1000B000F5000000F5000000F5000000F50000006C
:1000C000F5000000F5000000F5000000F03301002D
:1000D00000000010EC010000F033010000C0072018
:1000E00000000000F00100101C42000000C00720CA
:1000F00000000000FEE700BFFEE700BFFEE700BF14
:10010000FEE700BFFEE700BFFEE700BFFEE700BF5F
:10011000FEE700BFFEE700BF80B5C4B09E4B9F4A1C
:100120009A4222D215461E462A6869680C3555F84F
:10013000044C44B10439002352F8040B41F8040F75
:1001400004339C42F8D8B542EED30FE056F8081CB1
:1001500056F8040C0B4620B143F8044B5A1A90424F
:10016000FAD80836AE42F1D10DE08C4D8C4B9D4251
:1001700009D205F1080607339B1B23F00703103350
:100180001D440024E2E7874B874A1A60874A5A6079
:10019000874A884B1A6008F0ADF908F0D3FA864B0D
:1001A0001B68864AA2FB03235B09013BB3F1807FF6
:1001B00009D2834A5360F821824B83F8231000232D
:1001C000936007231360804AD2F8C03043F01003D5
:1001D000C2F8C0307D4E7E4D022206F1180128463D
:1001E00008F03EFE7B4C204609F0CCFB4FF4E13199
:1001F000204609F01BFC0323E360204609F0FEFBC8
:100200004FF4007301227449744808F0A3FE4FF4C0
:10021000005301227249734808F09CFE636843F062
:1002200005036360704B082283F8052320221A60BF
:1002300003F03CFE6D4807F0FDFD6D4807F0FAFD48
:100240006C4807F0F7FD08F071FC02466A4904A803
:100250000AF050F904A807F0EDFD0F2008F064FB48
:100260000F2008F061FB132206F12001284608F058
:10027000F7FD62490B6843F080530B60604B1A68CE
:1002800042F400621A605F4A106840F0100010608B
:10029000106840F480101060086840F080700860BA
:1002A000196841F0080119605748016841F0806100
:1002B0000160116841F0007111601A6842F010028B
:1002C0001A6003F0D1F8514D514B591E01F19107BD
:1002D0000024012055F8046F3278520102F10052D7
:1002E00002F51C2252697678F24012F0010F05D116
:1002F00048705870987003F8014C04E04C705C70C2
:100300009C7003F8010C103310319F42E2D108F0C9
:1003100075F808F00DF83F4BDB7823B101223E4B16
:1003200083F85C2A03E000223B4B83F85C2A3A4CBA
:100330000025C4F8585A394BD3F81C11642606FB23
:1003400001F104F5246007F071FE84F87C5AC4F8CA
:10035000785A314604F66C2007F068FE304B03F5FE
:1003600096702A46FF21DA609A605A605A70997036
:1003700014339842F7D1284B002283F8342883F8AD
:10038000372883F8362883F83528224BDB78002B72
:100390004AD0244B1A704AE0E4000000CC00000070
:1003A000F40000000C44001066BB55AA44CCAA55CA
:1003B0000000000008ED00E0044400101F85EB5130
:1003C00010E000E000ED00E000C00F40980D0100DB
:1003D00000C0024000C00040300A001088410010F8
:1003E00080C807207441001000E100E0740F010094
:1003F000A80F0100C00F0100F40F010020C0092068
:1004000040C0092000C0092060C00920882D0100DB
:100410006500001064000010F0010010144200108C
:10042000D43F0010A41A00100122394B1A70384B27
:1004300000249C715C711C71364BDC709C705C708C
:10044000354B1C70DC709C705C7083F88B4C83F8AF
:100450008A4C83F8894C00F0C5FB04222F493048B0
:1004600008F0FEFC2F4A136843F48033136003F056
:1004700065FE2D4D284609F067F82B6823F471635B
:1004800023F00C0343F4006343F004032B6027497B
:10049000284609F033F8264B1C615C619C61254AB3
:1004A000DA612B6843F020032B60234B282283F86A
:1004B0000D234FF400521A60204807F0BBFC04A83B
:1004C00004F016FB049B1E4A934203D01D4A93423C
:1004D00004D007E01C4807F0ADFC06E01B4807F01D
:1004E000A9FC02E01A4807F0A5FC0122194B83F889
:1004F000802A06F0ADFE184B93F803319BBB164BD8
:1005000093F8063163B30122144B5A702BE000BFFD
:10051000A41A00107C0D00103C1F0010040E0100F6
:1005200000C0024000C0092000000240801A0600FE
:10053000C01C00103D41000000E100E00C10010073
:1005400001401400BF258E0020100100341001006E
:100550004C100100F0010010144200109C410010EA
:100560000022BB4B5A70BB4C2246BB4904A809F081
:10057000C1FF04A807F05EFC04F14802B74904A8D3
:1005800009F0B8FF04A807F055FC04F13002B449A3
:1005900004A809F0AFFF04A807F04CFC04F1E00345
:1005A00004F16002AF4904A809F0A4FF04A807F011
:1005B00041FC04F1E602AC4904A809F09BFF04A841
:1005C00007F038FC04F1F602A84904A809F092FFEC
:1005D00004A807F02FFC94F80311A54BA54A0029A5
:1005E00008BF1A46A44904A809F084FF04A807F02C
:1005F00021FC94F80611A14BA14A002908BF1A4614
:10060000A04904A809F076FF04A807F013FC94F8A9
:100610000511974B974A002908BF1A469A4904A822
:1006200009F068FF04A807F005FCB4F81821974901
:1006300004A809F05FFF04A807F0FCFBB4F81A2136
:10064000934904A809F056FF04A807F0F3FBD4F877
:100650001C21904904A809F04DFF04A807F0EAFB0B
:10066000D4F810218C4904A809F044FF04A807F02D
:10067000E1FBD4F81421894904A809F03BFF04A840
:1006800007F0D8FBD4F80821854904A809F032FF07
:1006900004A807F0CFFBD4F80C21824904A809F084
:1006A00029FF04A807F0C6FBB4F824314FF47A728E
:1006B00002FB03F27C4904A809F01CFF04A807F020
:1006C000B9FB94F82621794904A809F013FF04A87E
:1006D00007F0B0FBD4F82C21754904A809F00AFFF3
:1006E00004A807F0A7FB94F8313173B194F83011E6
:1006F000704A714B002908BF134601226F4904A8B4
:1007000009F0F8FE04A807F095FB524B93F832313C
:100710007BB1504B93F83011664A674B002908BFF4
:1007200013460222654904A809F0E4FE04A807F074
:1007300081FB484CB4F83421614904A809F0DAFE81
:1007400004A807F077FBD4F84411494B494A002923
:1007500008BF1A465B4904A809F0CCFE04A807F0BC
:1007600069FBD4F8481104AC414B424A002908BF48
:100770001A465549204609F0BDFE204607F05AFBAF
:100780004FF4632005F0DEFE05464FF4632005F0CC
:10079000D9FE03462A464D49204609F0ABFE2046C5
:1007A00007F048FB2B4BD3F84C214949204609F070
:1007B000A1FE204607F03EFB464E02224649304647
:1007C00008F04EFB0025F567284608F01FFA43495C
:1007D000284608F035FA4FF48062414B1A600094C5
:1007E00001230D221D21284604F022FE22783D49D6
:1007F000204609F07FFE204607F01CFB3A4807F030
:1008000019FB00F0F1FE00F0D7FE012221460E2078
:1008100000F0C4FE237843F0020323700122214636
:100820000E2000F09DFB29460A2007F011FC012252
:1008300021460E2000F0B2FE247804F00204E4B257
:1008400000F0D2FE002C53D0284807F0F3FA4FE016
:100850009C41001014420010601001008010010043
:10086000A0100100C0100100E410010004110100FB
:10087000500F0100480F0100241101005C0F01001E
:10088000600F010044110100641101008411010096
:10089000A8110100D0110100F8110100301201006F
:1008A00068120100A0120100D8120100F812010024
:1008B000101301006C0F0100700F010028130100DC
:1008C000581301007C13010088130100A4130100D8
:1008D000D813010000C00240140E0100801A060067
:1008E00000E100E0F41301000C14010028140100E1
:1008F00019238DF80B3000F05FFE01220DF10B0182
:100900002A2000F02DFB00210A2007F0A1FB012284
:1009100004A92A2000F042FE9DF810509DF80B40DB
:1009200000F062FEA54202D18A4807F083FA00F087
:1009300019FD00230393884B93F8803A1BB987482D
:1009400007F068FAFEE7864C4FF40162002120466A
:1009500009F056F94FF46B2005F0F4FD2060B0F576
:10096000612F12D37F4807F055FA04F0D3F94FF402
:100970006B22042103A804F035F904F0C5F92246DE
:1009800004214FF46B2004F0FFF8754C226876497F
:1009900004A809F0AFFD04A807F03CFA4FF46C205E
:1009A00005F0D0FD6060B0F5612F12D36F4807F0FD
:1009B00031FA04F0AFF94FF46C22042103A804F0DB
:1009C00011F904F0A1F9221D04214FF46C2004F068
:1009D000DBF8634B5A689A60654904A809F08AFD00
:1009E00004A807F017FA05F0DDFD0146614807F09D
:1009F0001DFB614807F00EFA02226049604808F0CA
:100A00002FFA604D284608F0BDFF4FF4E13128462B
:100A100009F00CF80323EB60284608F0EFFF4FF4D1
:100A2000006301225849594808F094FA4FF40063D2
:100A300001225749574808F08DFA0024564B1C7084
:100A4000564B83F86B4083F86D4083F86E4040F658
:100A500024122146524809F0D3F82146322007F0EB
:100A6000F7FA504807F0E6F94F4EF36943F0805328
:100A7000F3612146C82007F0EBFA4C4807F0DAF999
:100A8000B36943F08053B361494807F0D3F9494A49
:100A9000936943F0100393612146192007F0D8FAB7
:100AA0006B6843F005036B60434B082283F8062311
:100AB00040221A604149424807F0B8FA02F0DCFCD3
:100AC000204600F073FA3F4807F0B4F9214664204D
:100AD00007F0BEFA3C4802F0A7FC2146642007F06C
:100AE000B7FA4FF4E13000F061FA384802F09CFCAC
:100AF000374807F09FF90121364807F097FA4FF081
:100B00008044AA26552500F087FD80B107F04EFAF3
:100B100003F070FA00F08EFB04F006FE02F0B4FC65
:100B200007F0BAFC00F068F8A660A560EBE72A4879
:100B300007F080F90021642007F08AFABFF34F8F95
:100B40002649CA6802F4E062254B1343CB60BFF329
:100B50004F8FFEE73C140100F0010010501401001B
:100B600080F007207C140100C4140100EC14010083
:100B70003415010064430010581501001C0E0100DB
:100B800000C002400000014090F8072050380010DB
:100B900080E8072064380010940C0010A83E001074
:100BA000801100107415010020C009208C1501006F
:100BB000A415010000C0092000E100E080FC0A004B
:100BC000880C0010B8150100D4150100EC150100C7
:100BD00000160100740C00100816010000ED00E082
:100BE0000400FA05034B01221A7000229A715A710F
:100BF0001A717047F00100100B4B1A680B4B9A42A8
:100C000004D1094B5A680A4B9A420BD0BFF34F8F5D
:100C10000849CA6802F4E062074B1343CB60BFF394
:100C20004F8FFEE7704700BF0C44001066BB55AA0B
:100C300044CCAA5500ED00E00400FA054FF0402333
:100C40001B6813F0020F21D010B44FF04023022292
:100C50001A605A6822F001025A600D4803680D4973
:100C600091F830400122A24043F0807313430360A7
:100C700091F830300133DBB2042B02D081F83030F0
:100C800003E00022034B83F8302010BC704700BF04
:100C900000400340F00100108B1E6231002233F847
:100CA000020F02448B42FAD10248A0FB0230C0F38B
:100CB0000F1070471F85EB5110B54C4A136823F095
:100CC000E06323F0FF031360136B13F4803F00F025
:100CD0008B80DBB2013B072B00F28680DFE803F05C
:100CE0000423844684848462414B588E421C92B211
:100CF0005A863E49096903EB4003C1F30B119986FB
:100D0000322A09D13A4C04F134010020FFF7C4FF24
:100D1000A4F8C401002363864FF04022536843F0D7
:100D20000103536010BD324BB3F8C601421C92B2AE
:100D3000A3F8C6212D49496903EB4003C1F30B1108
:100D4000A3F89810322A0AD1294C04F19801012005
:100D5000FFF7A2FFA4F8C8010023A4F8C6314FF0A2
:100D60004022536843F00103536010BD204BB3F899
:100D7000CA01421C92B2A3F8CA211C49896903EB3B
:100D80004003C1F30B11A3F8FC10322A03D1002257
:100D9000174BA3F8CA214FF04022536843F00103D8
:100DA000536010BD124BB3F8CA01421C92B2A3F8B3
:100DB000CA210E49C96903EB4003C1F30B11A3F823
:100DC0006011322A0AD10A4C04F5B0710320FFF7F2
:100DD00063FFA4F8CC010023A4F8CA314FF04022ED
:100DE000536843F00103536010BD00BF004003404F
:100DF000F001001008B5034A0349044808F0C8FE92
:100E000008BD00BF440D0010580D001000800940BF
:100E100070B584B04B4B5D6815F4807F60D04A4C50
:100E2000D4F8D02103F58043196A04EB0212C2F80A
:100E3000D411D4F8D021596A04EB0212C2F8D811A7
:100E4000D4F8D021996A04EB0212C2F8DC11D4F86C
:100E5000D021D96A04EB0213C3F8E011D4F8D061B1
:100E60003601A31903F5EA730FCB0DF1100E0EE94D
:100E70000F003444D4F8D841C4F30F23C4F30A005C
:100E8000B4F5006F28BF1846304B196804390023A9
:100E900051F8042F5AB1824209D101942C4C04EB31
:100EA000031404AB13E90F0084E80F0002E00133E0
:100EB000142BEDD1244BD3F8D0210132C3F8D0212B
:100EC000D3F8D031642B03D100221F4BC3F8D021BB
:100ED0004FF496711F4807F0A9F804221E4B5A6080
:100EE00015F4007F1ED0184BD3F814280132C3F834
:100EF0001428D3F81438632B0DD8134AD2F81438B9
:100F0000164B196AD2F81418596AD2F81418996A4B
:100F1000D2F81428DB6A01220B4BC3F818280422EC
:100F20000E4B5A600C4B9B6813F0400F1CBF0A4BD2
:100F30009B680A4B9B6813F0400F1CBF074B9B68D4
:100F400004B070BD00000440F00100100810001053
:100F50003410001074110010004004400080044060
:100F60002DE9F04180460F4615460D4C80220021A8
:100F7000204608F045FEAA1C0A4B1A6000260A4BC0
:100F80001E603A23237084F801802A463946A01C4B
:100F900008F02BFE304604F007FA2846BDE8F08141
:100FA000A81E0010301F0010341F001030B5D5B03F
:100FB00005460022364B1A7002223649364807F0A1
:100FC0004FFF364C204608F0DDFC0323E360344C31
:100FD0004FF4006301222146324807F0BBFF802313
:100FE000012204F50061304807F0B4FF4FF4A87205
:100FF0002E49684608F0F9FD3DBB284C4FF41651C8
:10100000204608F013FD204608F0F8FC636843F022
:1010100005036360264B082283F8072380221A60A9
:1010200024494FF4967007F013F8194B1B780024ED
:1010300003B34A9BB3F5165F1BD0684605F0B2FFB9
:101040004FF416534A93012414E0144C29462046C9
:1010500008F0ECFC204608F0D1FC636843F005037F
:101060006360134B082283F8072380221A6001244F
:1010700000E001240122104B1A704FF47A710F48DE
:1010800006F0D4FF0E4806F0D5FE204655B030BD20
:101090001A3F0010980D010000C002400080094076
:1010A00000C00720580D0010440D0010144200101D
:1010B00000E100E07D530000780D00106C0D001081
:1010C000240E0100F8B507460A4C04F62415204604
:1010D00009F063FA28B104F5C374AC42F7D10020DB
:1010E000F8BD4FF4C3723946204608F07EFD01205A
:1010F000F8BD00BF80110010314B9B79002B5DD0F3
:1011000070B42F494A7901EBC200057A447AC0686D
:10111000013B8B71032A87BF00220B460132284B0B
:101120005A7144E0002D48D1621E02EB4202254B69
:101130001A4453785B0103F1005303F51C239969AA
:101140009278012505FA02F20A439A611E4BA3FB2D
:101150000030C0081D4905230B601D4B002283F899
:1011600004211C4EC3F81061C3F80C01C3F8080138
:1011700083F80551C3F8144107230B60104B1A7014
:101180001BE0012D19D101220D4B1A70013C04EB1B
:1011900044040C4B1C4463785B0103F1005303F5DA
:1011A0001C23D969A07882400A43DA6105E0044B28
:1011B0001B78002BE5D0012BB4D070BC704700BF6A
:1011C000F0010010A81E0100CDCCCCCC10E000E056
:1011D000D43F00101912000008B50D4B9A79042A6B
:1011E00011D801329A711A7903EBC203017819728E
:1011F000417859724168D960032A8CBF00220132BC
:10120000034B1A7108BD034806F014FE08BD00BF69
:10121000F0010010380E010000B583B001238DF8F5
:1012200000308DF801006846FFF7D6FF03B05DF887
:1012300004FB00BF324B93F81F38002B5ED030B553
:10124000ADF54D7D2E4890F81E2802EB4201014479
:1012500091F8205891F82148013B80F81F38032A63
:1012600087BF002203460132254B83F81E283EE04B
:10127000244806F0DFFD611E01EBC10101EBC10155
:1012800051242246204B194401A808F0AEFC224606
:1012900001A916A808F0A9FC9DF85830012B02D02E
:1012A000022B13D027E000238DF8AC300DF159014B
:1012B0000DF1AD0009F069F90DF169010DF1AD0015
:1012C00009F063F92BA804F0D7F814E001238DF896
:1012D000AC300DF159010DF1AD0009F056F92BA814
:1012E00004F0CAF807E0094806F0A4FD03E0002D69
:1012F000BED0012DF7D00DF54D7D30BD704700BF3C
:10130000F0010010640E0100D81A0010800E0100D8
:1013100008B5124B93F81F38042B1AD80F49013324
:1013200081F81F3891F81D3803EB43020A44017815
:1013300082F82018417882F82118032B04D9002262
:10134000064B83F81D2808BD0133044A82F81D3876
:1013500008BD034806F06EFD08BD00BFF001001097
:101360009C0E010030B5A1B004225B495B4807F038
:1013700077FD5B4C204607F023F95A4D284607F0CD
:101380001FF90D2007F0D0FA0E2007F0CDFA0F203C
:1013900007F0CAFA01232B60236000232B6123612D
:1013A000AB60A3605049684609F0EFF84F4BB3F8C3
:1013B0002431FA2B0DD14E49684609F0BFF84D4C47
:1013C0002146474807F00CF92146284607F008F95E
:1013D0000CE04949684609F0B1F8484C21464048BC
:1013E00007F0FEF821463F4807F0FAF83F4B93F824
:1013F0002631022B07D14249684609F09FF8414A3D
:10140000414B1A6006E04149684609F097F8404AA6
:101410003D4B1A60334900220A60314B1A600124A7
:101420000C611C613B4BC3F81828C3F830283A4BB9
:101430001C609A603948A1F58031086000F14020B5
:10144000043108600821D960A0F13F2001F18041FA
:1014500001F56031086000F140200431086010217E
:1014600019614FF4801001F1804101F5603108608D
:1014700000F100500431086000F1005004310860B0
:1014800000F1005004310860202159614FF4001030
:1014900001F1804101F56031086000F10050043134
:1014A000086000F100500431086000F10050043180
:1014B0000860302199611A604FF00072184B1A6071
:1014C0004FF49671174806F0B1FD684606F0B2FC7D
:1014D000204621B030BD00BFA00D010000C0024079
:1014E0000040044000800440BC0E01001442001083
:1014F000DC0E010090D00300E80E010020A10700DF
:10150000F40E0100641C0100081000100C0F010013
:10151000941C0100F001001000C0034000210001F4
:1015200000E100E07411001008B50F4B93F8372864
:10153000022A14D8013283F8372893F8352803EBB0
:101540004203017883F83818417883F83918012A62
:101550008CBF00220132044B83F8352808BD0348B4
:1015600006F068FC08BD00BFF0010010240F010068
:10157000012807D010B1032808D00BE0064BB3F8C0
:10158000C4017047044BB3F8C8017047024BB3F86D
:10159000CC01704700207047F001001010B582B0F8
:1015A00014460091134602461D21002003F040FF1F
:1015B000204602B010BD00BF00B583B001220DF17E
:1015C00007012A20FFF7EAFF9DF8073023F0010307
:1015D0008DF8073001220DF107012A20FFF7C0FC2A
:1015E00003B05DF804FB00BF00B583B001220DF12C
:1015F00007012A20FFF7D2FF9DF8073043F00103CF
:101600008DF8073001220DF107012A20FFF7A8FC11
:1016100003B05DF804FB00BF2DE9F041ADF6783D65
:10162000BE4806F0E3FC002840F02387BB4B1B7B41
:10163000052B00F22087DFE813F006002E000702DA
:10164000950333041A070624B54FB64EB64D3946F6
:10165000304603F09BFF2B464FF4FA7220210DF524
:10166000C06003F04FFFB1490DF5C06008F0C5FF41
:1016700048B1AF4806F0DEFBA84B01241C730022E2
:101680005A7300F049BF631E13F0FF04DFD100F06E
:10169000F4BE01F09DFE0022A64B83F86E200424C8
:1016A000A54FA64EA04D3946304603F06FFF2B469E
:1016B000FA2220210DF5C06003F024FF9B490DF5AF
:1016C000C06008F09AFF38B19D4806F0B3FB0424CF
:1016D0009C4F9D4E944D04E0631E13F0FF04E2D135
:1016E000A1E13946304603F051FF2B46FA22402152
:1016F0000DF5C06003F006FF8C490DF5C06008F0E1
:101700007CFF98B310220021904808F079FA9DF8E8
:1017100000365BB38E4A126813445B7813F0040FF3
:1017200008D10DF5C0611DE013445B7813F0040F80
:1017300018D001E00DF5C061844C0F22204608F05E
:1017400054FA0022E273834806F074FB204606F048
:1017500071FB814806F06EFB0424804F714D05F14A
:10176000440608E011F8013F002BDDD1013C14F0E4
:10177000FF04B6D157E13946304603F007FF6A4B04
:10178000FA2240210DF5C06003F0BCFE05F15001C6
:101790000DF5C06008F031FF38B1714806F04AFB22
:1017A0000424704F704E604D07E0013C14F0FF04BC
:1017B000E1D16E4806F03EFB35E13946304603F094
:1017C000E5FE2B46FA2240210DF5C06003F09AFE9B
:1017D00056490DF5C06008F010FFB0B1644806F03E
:1017E00029FB644C10220021204608F009FA0F2240
:1017F0000DF20261204608F0F8F9012384F8533015
:10180000042440255C4F5D4E04E0631E13F0FF048A
:10181000D3D108E12A4600210DF5C06008F0F0F9A7
:1018200039460DF5C06008F089FE3022314623A804
:1018300008F060FE23A90DF5C06008F07FFE504956
:101840000DF5C06008F07AFE4E490DF5C06003F05A
:101850009DFE354BFA2229460DF5C06003F052FE7D
:1018600032490DF5C06008F0C8FE70B1312246491A
:101870000DF5C06008F03EFE0DF5C06006F0DAFA26
:1018800004244025414F424E04E0631E13F0FF0440
:10189000C0D1C8E02A4600210DF5C06008F0B0F9BB
:1018A00039460DF5C06008F049FE0F23302231465D
:1018B00023A808F01FFE23A90DF5C06008F03EFE26
:1018C0002F490DF5C06008F039FE32490DF5C060B2
:1018D00003F05CFE144BFA2229460DF5C06003F0BC
:1018E00011FE12490DF5C06008F087FE88B10F2285
:1018F00029490DF5C06008F0FDFD0DF5C06006F04A
:1019000099FA41F2707123A806F090FB234E244D02
:1019100079E0631E13F0FF04BCD184E0880C001052
:1019200024170100301601007D530000CC23010074
:1019300038170100A83E00104817010040160100AA
:10194000581701006817010068160100B33E001027
:10195000480100107C170100881701008C17010056
:10196000A4170100BC17010088160100B017010080
:10197000D0170100C33E001094160100DC170100CF
:10198000E0170100E417010000180100A016010093
:101990001C180100241801004018010064180100FF
:1019A000AC1601003146284603F0F0FDB34BFA2295
:1019B00040210DF5C06003F0A5FD06A90DF5C0603E
:1019C00005F018FF9DF8180005F0C0FEAC4B93F829
:1019D0006B40C4B1AB4806F02DFA642123A806F091
:1019E00025FBA949A94803F0D1FDA44BFA224021C7
:1019F0000DF5C06003F086FDA5490DF5C06008F047
:101A0000FCFD30B90FE023A806F0F0FA0028C9D099
:101A100009E0A04D00236B73032005F0FDFE0223B7
:101A20002B7300F079BD9B4B5B7B052B05D00133FD
:101A3000984A5373012400F06FBD964B00225A73ED
:101A40001A73012400F068BD4FF4A87292490DF595
:101A5000C06008F0CAF80424904F914E914D0122C5
:101A6000394603A808F046FD2022002106A808F008
:101A7000C7F8314606A808F061FD03A906A808F0DA
:101A80005DFD294606A808F059FD7F4906A803F028
:101A90007DFD7A4BFA22402123A803F033FD8249D1
:101AA00023A808F0AAFD18B9631E13F0FF04D6D1CD
:101AB00004247E4F744E714D394606A808F03EFD51
:101AC000314606A803F062FD2B46FA22402123A8E6
:101AD00003F018FD744923A808F08FFD18B9631EA0
:101AE00013F0FF04E8D10424714F674E634D39466B
:101AF00006A808F023FD314606A803F047FD2B4653
:101B0000FA22402123A803F0FDFC674923A808F02E
:101B100074FD18B9631E13F0FF04E8D19DF8603618
:101B2000644A126813445D7805F003050424624E8C
:101B3000624F2022002106A808F062F8314606A86C
:101B400008F0FCFC25B15E4906A808F0F7FC03E0AC
:101B5000394606A808F0F2FC4B4906A803F016FD2A
:101B6000464BFA22402123A803F0CCFC4E4923A87F
:101B700008F043FD18B9631E13F0FF04D9D1042403
:101B8000464F20254F4E0122394603A808F0B2FCEB
:101B90002A46002106A808F033F8314606A808F0C6
:101BA000CDFC03A906A808F0C9FC3E4906A808F028
:101BB000C5FC354906A803F0E9FC304BFA2229465A
:101BC00023A803F09FFC384923A808F016FD08B9A4
:101BD000013CD8D141F2707103A806F027FA3A4EC1
:101BE0003A4D86E0304606F025F94FF48072002128
:101BF00023A808F005F8294623A808F09FFC0DF556
:101C0000C06123A808F09AFC314C214623A808F0B3
:101C100095FC0DF5C66123A808F090FC214623A889
:101C200008F08CFC0DF5C96123A808F087FC294950
:101C300023A808F083FC144923A803F0A7FC0F4B4A
:101C4000FA22202106A803F05DFC174906A808F037
:101C5000D4FC002844D0204806F0ECF800220D4BBC
:101C60005A734FF4A8720C490DF5C06007F0BDFF20
:101C70001A4B1B78002B43D15DE000BF7D53000061
:101C8000A83E001084180100E8150100B8160100F4
:101C900090180100880C00101442001094180100E4
:101CA000D4160100E0170100CC230100E01601006A
:101CB000EC16010048010010FC1601009C18010000
:101CC0009818010008170100A0180100141701005E
:101CD000B8180100BC18010000160100A73E001052
:101CE000032005F099FD844B93F86B30002B00F036
:101CF000CE8303A806F07AF900283FF473AFC6E359
:101D000000227E4B1A700A2005F03AFF18B1052216
:101D10007B4B1A731EE07B4C0DF5CC61204608F01E
:101D200034FC0DF5DC6104F1800008F02EFC032288
:101D3000734B1A730EE0734C0DF5CC61204608F01E
:101D400024FC0DF5DC6104F1800008F01EFC032288
:101D50006B4B1A730124DFE3694B00225A731A7329
:101D60000124D9E30A2005F00BFF0446002800F007
:101D7000888004238DF800360DF5C06003F07CFBED
:101D8000614D40F273520021284607F039FF06A842
:101D900003F0B0FB5D49284608F0D0FB0DF12301AC
:101DA000284608F0CBFB5A49284608F0C7FB59499A
:101DB000284608F0C3FB0DF13301284608F0BEFBAE
:101DC000554ED6F8805105F00F052A46534923A8F1
:101DD00008F090FB23A806F02DF8C6F88051013DCD
:101DE000072D19D8DFE805F00409180E1818181384
:101DF0004B49454808F0A2FB12E04A49424808F026
:101E00009DFB0DE04849404808F098FB08E0474931
:101E10003D4808F093FB03E045493B4808F08EFB42
:101E2000394D4449284608F089FB284608F0B5FB9F
:101E3000414E324681B2284605F012FC0121284667
:101E400001F0D0FE324681B2284605F009FC58B1B7
:101E50000122294B83F86D20294D00236B7305F077
:101E600039FF04232B7357E3254B5B7B052B03D0F2
:101E70000133234A53734FE3214B00225A731A73E1
:101E80004AE31F4B5B7B052B04D001331C4A537381
:101E9000012441E31A4B00225A731A7301243BE3D5
:101EA0001222264906A807F0A0FE9DF81930032B40
:101EB00012D19DF81830012B0ED1134C204604F09E
:101EC000A1FF1D4A81B2204605F0CAFB002800F0A0
:101ED0001B830022194B5A70194C04F62415204616
:101EE00008F05BFB002840F0DC8204F5C374AC42D0
:101EF000F5D1002530E000BFA83E0010A73E00103D
:101F0000880C0010203E001090000820C01801002E
:101F1000BC0F0100A80F010000C00F40C81801004D
:101F2000DC180100E4180100EC180100F4180100AD
:101F3000FC180100081901007D5300009C410010AD
:101F400080110010B349B44806F070F847F23051E0
:101F5000B24806F06BF80125B04806F047F8C0B16A
:101F6000AF4805F067FFAF4C204601F077FFAE4A5F
:101F700081B2204605F074FB002800F0C58247F2CC
:101F80003051A64806F052F8A249A34806F04EF890
:101F90000125A64806F02AF8E0B1A24C012120460E
:101FA00001F020FEA04A81B2204605F059FB00282E
:101FB00000F0AA8205F04CFE01469C4806F036F877
:101FC00047F23051954806F031F89249924806F0B0
:101FD0002DF80125964806F009F8002800F07E81CA
:101FE00000238DF8763B934B1A685B689A4200F0A9
:101FF000E28040F2735200210DF5C06007F000FE50
:102000000922002103A807F0FBFD8A4B1A685868D3
:10201000824206D900F273539A4212D2121A94B233
:1020200007E000F27353B3F5612F0DD3C0F1E10463
:10203000A4B240F2735340F27252944288BF1C46DD
:1020400004E040F2735401E040F2735423AA2146A5
:1020500002F09AFD022123A808F07FFA0646032128
:1020600023A808F07AFA0746002E57D000286ED031
:10207000864206D96F4A23ABF61A5368334453603D
:102080007BE00024014601F8044901A808F07DFA2C
:1020900007F8044C06F10108404608F07EFA0138C2
:1020A0001FFA80FE0EF1020EB64440462246082476
:1020B00041F2210110F8013B82EA0322234612F487
:1020C000004F14BF81EA4202520092B2013B13F06A
:1020D000FF03F4D17045EDD1574903A808F00AFA7F
:1020E00003A901A808F047FA58B941460DF5C060A8
:1020F00008F04BFA01238DF8763B504805F08AFE34
:1021000005E04F4805F086FE00238DF8763B494AEE
:1021100053680133BE1B334453602EE050B9494825
:1021200005F078FE00238DF8FE35424A53682344BB
:10213000536022E0002303703E4A5368013323A911
:10214000471A3B445360404805F064FE15E0022105
:10215000701C08F002FA60B1002200F8012C354A28
:1021600023A9431A51680B445360384805F052FEC6
:1021700003E0304B5A6814445C602E4B5B68B3F547
:10218000612F02D300222B4B5A602A4B1A685B68DE
:102190009A4210D1009202F0BDFD4FF46C2004F081
:1021A000E9F902460421684602F01CFD02F0ACFD8C
:1021B000204B5A689A609DF8763B002B00F089808E
:1021C00040F27352002123A807F01AFD20490DF5B3
:1021D000C06008F012FA044638B90DF5C06005F089
:1021E00029FE1C4805F026FE69E11B490DF5C0607B
:1021F00008F003FA064618B9184805F01BFE5EE120
:10220000174808F0CAF90F282ED0164805F012FE1C
:1022100055E100BF80FC0A00880C0010683F0010E8
:102220000C190100900008207D530000704300103D
:10223000743F001080F007202019010024190100CC
:102240003819010044190100681901008C190100B6
:10225000B0190100B419010008190100C4190100E6
:10226000B33E0010D4190100AE4923A808F066F966
:1022700000233370AC4923A808F060F9A11C23A8FF
:1022800008F05CF923A804F06FFB032123A801F0F8
:1022900093F9A64923A808F051F923A90DF5C060C8
:1022A00008F073F90DF5C06008F077F9A04A81B223
:1022B0000DF5C06005F0D4F9002800F0258147F243
:1022C00030519C4805F0B2FE9B499C4805F0AEFE9B
:1022D00001254FF47A719A4805F0A8FE994805F057
:1022E00085FE00287DD0032005F096FA032802D051
:1022F000954B1B7863B10021934B1970642005F056
:10230000A7FE052005F082F9904805F093FDDAE07C
:1023100040F2735200218E4807F072FC0024DFF86F
:1023200010828B4F42464FF480710DF5C06003F070
:1023300059FC064602460DF5C061381907F055FCF8
:102340003444A4B2002EEDD1ACB340F2745200215B
:102350000DF5C06007F054FC01220DF5C0617C480A
:1023600004F072FD022811D10DF5C06005F062FD88
:102370000DF5C06008F011F96D4A81B20DF5C0602D
:1023800005F06EF9002800F0BF8002E0032800F09D
:102390009A806949694805F049FE47F2305165481D
:1023A00005F044FE9DF8733B012523B1694805F013
:1023B00041FD01F00DF8684B1B68B3F5FA6F07DCBF
:1023C000664B93F86B301BB1644B93F86D301BB9BF
:1023D000634805F02FFD97E04FF49671594805F0DA
:1023E00025FEBDB9012497E0544A002353735B498D
:1023F00081F86D30137301248EE005F06BFC5948B1
:1024000005F018FD554B1A89DA800022524B1A60EC
:10241000012481E00022494B5A7301247CE003F837
:10242000012F8B42FBD1504C21460DF5C06008F0C6
:10243000ACF800210DF5C06008F08FF804F18001C0
:10244000013008F0A2F872B60F21084606F03CFCF5
:102450004FF480620DF5C0614FF47C4006F04EFCF5
:1024600062B60021642005F0F3FD00F0B1FF00F03A
:10247000AFFF002450E001244EE0304A937B01334B
:10248000DBB29373052B3FF404A9012444E02B4BEA
:102490005B7B052B3FF460AC0133284A5373012466
:1024A0003AE02B4C0121204601F09CFB204A81B2EE
:1024B000204605F0D5F800287FF444AD24E02B48F1
:1024C00005F0B8FC05E72A4805F0B4FC052005F046
:1024D0009DF8284805F0AEFC234C204605F0AAFCE8
:1024E00004F1800005F0A6FC72B60F21084606F044
:1024F000EBFB0F21084606F029FC62B60DF2FF53F4
:102500000DF6FF11FF228AE70C4A537B591C5173C9
:10251000052B7FF472AF67E720460DF6783DBDE8E6
:10252000F08100BFB0190100B33E0010081901008E
:102530007D530000683F001080FC0A00880C0010EA
:10254000743F0010803F0010A73E0010E419010006
:1025500090000820F4190100643F0010A83E00100C
:10256000041A01001C1A0100203E0010441A010048
:102570006C1A0100881A0100F8B500240026064FE5
:10258000E559314628460EF099FB00B12E460C3431
:102590003C2CF5D13046F8BD980C0010F8B500245D
:1025A0000026064FE559314628460EF0A5FB00B13E
:1025B0002E460C343C2CF5D13046F8BD980C00105A
:1025C00028B1064A936943F0080393617047034AB0
:1025D000D36943F00803D361704700BF40C00920AE
:1025E00003681A78064B1B6813445B7803F00303F7
:1025F000012B0EBF0120002002460A70704700BF69
:1026000048010010F0B55FFA81FE00273B460C49F7
:1026100009E003EB8303A5F1300404EB43030DB1A0
:10262000013606600137066835780C682C446478FA
:1026300014F0040F01D07745EBD113600120F0BDF9
:10264000480100102DE9F04182B004460E461546BF
:1026500002AA002342F8043D4FF0FF31FFF7D2FFFA
:10266000864600283DD023681A782E2A37D15A1C76
:10267000226058781D4B1B6803445B7813F0040FED
:1026800028D04FF00A080023194FDFF860C008E097
:1026900022681078DCF800100144497811F0040F2A
:1026A0000ED003EB8303A0F1300101EB430308B12B
:1026B0000132226008EB880252009046BA42E7D904
:1026C000B8F57A7F07D10B4A82FB0312DB17C3EB05
:1026D000A20300E00023019A32602B6001E04FF07A
:1026E000000E704602B0BDE8F08100BF4801001046
:1026F000A08601006766666602E01BB101320260D7
:10270000026813788B42F8D109B101320260704738
:1027100030B585B004AC44F80C0D0D4602230B70A7
:102720002C212046FFF7E8FF2C212046FFF7E4FF8D
:102730002C212046FFF7E0FF2C212046FFF7DCFF8D
:102740002C212046FFF7D8FF2C212046FFF7D4FF8D
:1027500003AA4FF0FF312046FFF754FF034688B12C
:10276000039B85F84C302C2101A8FFF7C5FF03AA75
:102770004FF0FF3101A8FFF745FF034610B1039A60
:1027800085F84D20184605B030BD00BF30B587B084
:1027900006AC44F8140D0D4601230B702C21204685
:1027A000FFF7AAFF05AA02212046FFF72BFF00280A
:1027B00000F0C28006AA52F8043D2B71022101A844
:1027C000FFF720FF002800F0B98006AA52F8043D68
:1027D0006B71022101A8FFF715FF002800F0B080FF
:1027E000059BAB712C2101A8FFF786FF0DF10F01AE
:1027F00001A8FFF7F5FE002800F0A4809DF80F3037
:10280000EB712C2101A8FFF777FF04AA05A901A805
:10281000FFF718FF002800F097800599544B83FBC1
:102820000123CA17C2EB63136B81642202FB1313EB
:10283000AB81049B2B612C2101A8FFF75DFF0DF1FB
:102840000F0101A8FFF7CCFE00287FD09DF80F30C4
:102850002B722C2101A8FFF74FFF04AA05A901A89C
:10286000FFF7F0FE002873D00599414B83FB01234D
:10287000CA17C2EB6313EB82642202FB13132B8390
:10288000049BEB612C2101A8FFF736FF0DF10F012E
:1028900001A8FFF7A5FE00285CD09DF80F302B752E
:1028A0002C2101A8FFF728FF04AA05A901A8FFF71A
:1028B000C9FE002850D0059A2A84049B6B84092BFA
:1028C00008D80A2000FB02300EF006F829490EF065
:1028D0000BF968622C2101A8FFF70EFF04AA05A9D5
:1028E00001A8FFF7AFFE002838D0059B2B85049B7D
:1028F0006B852C2101A8FFF7FFFE05AA022101A884
:10290000FFF780FE60B306AA52F8043D85F82C302C
:10291000022101A8FFF776FE20B306AA52F8043D73
:1029200085F82D30022101A8FFF76CFEE0B1059B70
:1029300085F82E30012018E0002016E0002014E079
:10294000002012E0002010E000200EE000200CE04B
:1029500000200AE0002008E0002006E0002004E05B
:10296000002002E0002000E0002007B030BD00BFE2
:102970001F85EB510000204170B586B006AC44F8CD
:10298000140D0D4603230B702C212046FFF7B4FED7
:102990000DF10F012046FFF723FE00284ED09DF8D1
:1029A0000F3085F850302C2101A8FFF7A5FE05AAAD
:1029B0004FF0FF3101A8FFF725FE002840D0059B0E
:1029C00085F851302C2101A8FFF796FE0C242C2607
:1029D000314601A8FFF790FE631E13F0FF04F7D104
:1029E00004AA05A901A8FFF72DFE58B3059B85F899
:1029F0005E30049B85F85F302C2101A8FFF77CFE38
:102A000004AA05A901A8FFF71DFEE8B1059B85F8FA
:102A10006030049B85F861302C2101A8FFF76CFE23
:102A200004AA05A901A8FFF70DFE78B1059B85F85A
:102A30006230049B85F86330012008E0002006E046
:102A4000002004E0002002E0002000E0002006B0AA
:102A500070BD00BF08B5034A0349044807F098F861
:102A600008BD00BF6438001050380010000001405D
:102A70002DE9F04FADF56D7D06460C460322002191
:102A80004AA807F0BDF8032200210AA807F0B8F809
:102A900033782A2B17D00D2B17D0002B00F05B8436
:102AA00006F181013246002505E0002B00F0538439
:102AB000914200F050845D4012F8013F2A2B05D06E
:102AC0000D2BF2D102E0002500E00025304607F092
:102AD00064FDC11E022231444AA807F086F82A4646
:102AE000B9490AA807F006FD0AA807F056FD012813
:102AF00006D19DF828308DF8293030238DF8283004
:102B00004AA90AA807F037FD002840F020840722D0
:102B100000214AA807F074F8052231464AA807F0B8
:102B200059FD00232370A94D05F130074AA92868F3
:102B300007F021FD20B96B6821463046984702E036
:102B40000835BD42F2D12378012B40F00284A04B1E
:102B500093F858300133DBB2012B03D09C4A82F842
:102B6000583003E000229A4B83F858200122994BF9
:102B70001A70E379412B40F0E58394F85130032B30
:102B800040F0938294F84C30002B00F08E8294F841
:102B90004D30052B40F289828D4DB5F85A608E4933
:102BA000606A0DF0EDFE8D490DF09EFF0746E96D60
:102BB0000DF0DCFD0DF034FA7FA3D3E900230DF016
:102BC000ADFB0DF079FD8046EF657700BB199B00EA
:102BD00005EB0309E8508049606A0DF0D1FE7F499A
:102BE0000DF082FFC9F808007D49286E0DF0C8FE7F
:102BF00081467C4940460DF0C3FE014648460DF033
:102C0000B7FD2866BB1905EB8303586095F864305F
:102C100013B1012B1ED08DE04FF080416C4B586BEF
:102C20000EF060F888B16A4D0126A5F86660E86A82
:102C30000EF092F8A5F86A00FFF7B0FC28676A4822
:102C400005F0F8F885F8646074E00022604BA3F8A2
:102C500066206FE04FF07E515D4B586B0EF042F8EE
:102C600078B15B4DB5F866300133A5F86630FFF7F3
:102C700095FC0646296F0EF03FF800285AD02E67C3
:102C800058E0534DE86A0EF067F886B2A5F86C601C
:102C9000B5F8663002339BB2A5F8663003EB8303C8
:102CA00003EB83039B00A5F86E30286F0DF0B8F995
:102CB00043A3D3E900230DF031FB0DF0FDFC2867A1
:102CC000B5F86A30B3422FD24FF4C37200214AA83C
:102CD00006F096FF45494AA807F057FCB5F86A3058
:102CE000B5F86E20B5F86C10009141494BA807F07B
:102CF00001FC4AA8FEF7E6F9B5F86660642303FB19
:102D000006F6B5F86C300393B5F86A300293286F75
:102D10000DF086F9CDE90001324636490AA807F0E0
:102D2000E9FB0AA805F086F8294B00221A67002261
:102D300083F86420304B1B7813B3012B40F0C38021
:102D40004FF04041224B586B0DF0C2FF98B1204D1F
:102D50000123A5F87430E86A0DF0FEFFA5F87A00AB
:102D6000FFF70AFCC5F88000244805F063F800224C
:102D7000214B1A70A7E00022154BA3F87420A2E0A3
:102D80001F49134B586B0DF0A3FFD8B3104DB5F886
:102D900074300133A5F87430FFF7EEFB0646D5F822
:102DA00080100DF08BFF002800F08D80C5F880604A
:102DB00089E000BFAFF300800AD7A3703D0AD73F78
:102DC0001F85EB51B89E234020190100A41A010071
:102DD000980C00101A3F00100080E74400007A446D
:102DE000CDCC4C3FCDCC4C3EE81A0100101B01006D
:102DF000141B0100201B010000000010641B0100D7
:102E0000000080BF984DE86A0DF0A6FF86B2A5F8D5
:102E10007C60B5F8743002339BB2A5F8743003EBD4
:102E2000830303EB83039B00A5F87E30D5F8800075
:102E30000DF0F6F88AA3D3E900230DF06FFA0DF038
:102E40003BFCC5F88000B5F87A300136B34230DD7E
:102E50004FF4C37200214AA806F0D2FE83494AA863
:102E600007F093FBB5F87A30B5F87E20B5F87C1002
:102E700000917F494BA807F03DFB4AA8FEF722F9D5
:102E8000B5F87460642303FB06F6B5F87C30039351
:102E9000B5F87A300293D5F880000DF0C1F8CDE98D
:102EA0000001324673490AA807F024FB0AA804F07F
:102EB000C1FF6D4B0022C3F880200022A3F87420CC
:102EC00001226D4B1A706D4804F0B4FF664D05F198
:102ED0003C0A2E466A4FB0680DF0A2F802460B4637
:102EE0003946ACA807F006FBACA804F0A3FF0C36EB
:102EF0005645F0D1634804F09DFF2E46604F706840
:102F00000DF08EF802460B463946ACA807F0F2FAEF
:102F1000ACA804F08FFF0C365645F0D15A4804F0A7
:102F200089FF0026DFF84081554F56F808000DF064
:102F300077F802460B463946ACA807F0DBFAACA896
:102F400004F078FF0C363C2EEFD101220AA90020B4
:102F5000FEF724FB9DF8283013F0080F74D04AAE1A
:102F60000096062301221D21002002F061FA96F945
:102F7000000096F901301B1103EB00100DF0ACFCC2
:102F80004FF06E510DF0FCFC074696F9020096F9E1
:102F900003301B1103EB00100DF09EFC4FF06E513F
:102FA0000DF0EEFC814696F9040096F905301B11F0
:102FB00003EB00100DF090FC4FF06E510DF0E0FCB3
:102FC000804638460DF02CF8CDE9060100224FF07E
:102FD00080430AF025FCCDE9080148460DF020F8B1
:102FE00006460F4600224FF080430AF019FC0246C5
:102FF0000B46DDE908010CF0B5FECDE908014046BD
:103000000DF00EF88046894600224FF080430AF00A
:1030100007FC02460B46DDE908010CF0A3FE0AF0AE
:1030200097FD0DF049FB0CF0FBFFCDE90401CDE964
:103030000289CDE90067DDE906231449ACA807F051
:1030400059FAACA804F0F6FE074BB3F85A30032B3C
:103050001ED80133044AA2F85A3022E0AFF30080B0
:103060001F85EB51B89E2340980C00108C1B01006B
:10307000141B0100901B010000000010D81B010070
:10308000E81B0100F01B0100001C0100101C0100E6
:1030900005F10C0393E8070085E807001D469A45F3
:1030A000F6D1E379412B40F04D810120FFF788FAFA
:1030B000B74B93F84C30012B02D1002005F000F9FA
:1030C000B4F90A10B34DB4F90C3005FB03F3B24A5E
:1030D00082FB03601844DB17C3EB601305FB013868
:1030E000236903EB83035B0082FB03121A44DB17A3
:1030F000C3EB62139844237A4E2B18BFC8F1000823
:10310000A64BC3F84080B4F91610A24DB4F918309C
:1031100005FB03F3A04A82FB03601844DB17C3EBF3
:10312000601305FB0135E36903EB83035B0082FB5E
:1031300003121A44DB17C3EB62131D44237D452B96
:1031400018BF6D42954B5D64D3F88870002F00F076
:103150000481B8F1000F00F00081D3F88C60002EDC
:1031600000F0FB80002D00F0F88040460CF046FF98
:1031700081A3D3E900230CF0A7FF81A3D3E90023A7
:103180000DF0CCF8CDE90601C7EB08000CF036FFD6
:1031900079A3D3E900230CF097FF79A3D3E90023A7
:1031A0000DF0BCF800227E4B0CF08EFF82468B4661
:1031B0000AF0ECFA80468946504659460AF0E6FA8B
:1031C00002460B46404649460CF07EFFCDE9080119
:1031D000A81B0CF013FF68A3D3E900230CF074FFC5
:1031E00067A3D3E900230DF099F800226C4B0CF093
:1031F0006BFF82468B460AF0C9FA804689465046E4
:1032000059460AF0C3FA02460B46404649460CF0BE
:103210005BFF80468946DDE90656284631460AF0BE
:1032200069FA02460B46404649460CF04DFF80467F
:103230008946284631460AF05DFA02460B4640466A
:1032400049460CF041FFDDE908230CF08BFD804678
:1032500089460AF07DFC06460F4642464B46002052
:1032600050490CF07DFD0AF073FC02460B463046D7
:1032700039460AF0D3FA02460B460CF073FD42A31E
:10328000D3E900230CF020FF06460F46434BC3E969
:1032900028670022444B0DF089F900B3434BDB78DB
:1032A000EBB1228C40F23C7303FB02F340F6B732E1
:1032B000934214DD394C32463B46D4E914010CF0FC
:1032C00051FDC4E91401D4F8A8000CF0A9FE32465F
:1032D0003B460CF047FD0DF0EFF9C4F8A8002F4B6A
:1032E000D3F8A840324920460DF0FCFCE0B12B4D4C
:1032F0002F4920460DF03AFAC5F8A80000222D4BC0
:10330000D5E914010DF00AF804460D462A4B186859
:103310000CF064FE02460B46204629460CF022FDC6
:103320000DF0AAF903F0AAFC1C4C04F1880504F185
:1033300040060FCE0FC596E8030085E8030004F1B0
:10334000400012E00020FFF73BF91C480DE0002090
:103350000BE01A4809E0002007E0002200230F4993
:10336000C1E9282316461F4698E70DF56D7DBDE897
:10337000F08F00BFAFF3008011E7FAA146DF913F65
:1033800000000000006AF84000000000AE4D584107
:1033900024410010A086010089888888980C0010BC
:1033A0000000E03F0000F03F0000244064000010F7
:1033B00000007A4400408F405C3F0010D80C0010A1
:1033C00008B50249FFF754FB08BD00BFB04100102B
:1033D000BFF34F8F0449CA6802F4E062034B134302
:1033E000CB60BFF34F8FFEE700ED00E00400FA056D
:1033F0000C4B1A8C40F23C7303FB02F342F6F722AB
:1034000093420BDD074B93F84C304BB1054B93F8CF
:103410004D00042894BF0020012070470020704711
:1034200000207047B041001010B5044604F002FDC2
:10343000204607F0B2F8034622460249024806F049
:1034400065FB10BD440D00100080094030B40446F7
:10345000044D0FCD0FC495E8030084E8030030BC91
:10346000704700BFD80C0010024AD36943F00073C4
:10347000D361704700C00920024AD36943F000734A
:10348000D361704700C0092010B5ADF5C26D01AC25
:1034900080220021204606F0B3FB1E4BCDF8F83504
:1034A0001D4BCDF8FC35CDF80C468023ADF8043625
:1034B0000223ADF80636194BCDF8003601238DF8FE
:1034C00008360DF5BF6000F03BFD60B104464FF4D7
:1034D0007A71134804F0AAFD6368124A21A9DDF845
:1034E0000C06984713E00E4804F080FD78B10E4BAF
:1034F00093F8E0305BB1BFF34F8F0C49CA6802F418
:10350000E0620B4B1343CB60BFF34F8FFEE70DF52B
:10351000C26D10BD00800940580D0010D41A010082
:103520006C0D0010DC1A0100980C001000ED00E09A
:103530000400FA0510B5A2B00446802200210DF166
:10354000050006F05DFB00238DF804308022214643
:103550000DF1050006F049FB144804F06BFC144B18
:10356000DB78042B1DD8124C0133E370637803EB36
:10357000C31323449DF804201A71A07800EBC010F7
:10358000204480220DF10501053006F02EFB637802
:10359000032B02D90022627006E00133044A537003
:1035A00002E0044804F046FC22B010BDC81C010033
:1035B0007C0D0010E01C01002DE9F04FADF56D7D94
:1035C0000446082900F0F8800FD8022900F009828B
:1035D00006D8002900F06A81012900F098803CE2B9
:1035E000032913D0042915D037E2A12900F008825D
:1035F00005D80A2900F0D180A0292CD02DE2A429D9
:1036000000F0D781A52900F0FF8126E2B94906F034
:1036100095FF22E2B84906F091FF0020FDF7A8FFD0
:10362000B64D024629464AA806F064FF4AA920463C
:1036300006F084FFB249204606F080FF0120FDF726
:1036400097FF024629464AA806F054FF4AA9204699
:1036500006F074FF01E2AB4906F070FF00230A9305
:10366000A94B93F8333023B100210AA804F0CAFB18
:1036700001E001230A93A44B93F8433023B10121C5
:103680000AA804F0BFFB03E00A9B43F002030A937D
:103690009D4B93F8533023B102210AA804F0B2FBEA
:1036A00003E00A9B43F004030A93974B93F86330BB
:1036B00023B103210AA804F0A5FB03E00A9B43F011
:1036C00008030A93904B93F8733023B10A9B43F09D
:1036D00010030A9303E004210AA804F093FB8A4B29
:1036E00093F8833023B10A9B43F020030A9303E04D
:1036F00005210AA804F086FB9DF8282083494AA8E2
:1037000006F0F8FE4AA9204606F018FFA5E1804D14
:1037100030222946E0A806F068FA3022A918D4A879
:1037200006F063FA7B49204606F008FF9DF88333D4
:10373000002B00F083817849E1980DF019F8774962
:103740000DF01EF90DF0E2FA024675494AA806F09E
:10375000D1FE4AA9204606F0F1FE9DF85333002B16
:1037600000F07B816C49D5980DF002F86B490DF0A3
:1037700007F90DF0CBFA05469DF883331BB160497C
:10378000204606F0DBFE2A4665494AA806F0B2FE4E
:103790004AA9204606F0D2FE5FE1624BDA6962492F
:1037A0004AA806F0A7FE6149204606F0C7FE4AA9CE
:1037B000204606F0C3FE50E15D4D95F8516095F846
:1037C0005E8095F85FB095F860A095F8619095F8E7
:1037D0006230099395F86370564906F0AFFE0021F8
:1037E000204606F0BAFE441C303606704449204696
:1037F00006F0A4FE414E424631464AA806F07AFE43
:103800004AA9204606F09AFEDFF84081414620464C
:1038100006F094FE5A4631464AA806F06BFE4AA9C5
:10382000204606F08BFE3649204606F087FE5246BB
:1038300031464AA806F05EFE4AA9204606F07EFE02
:103840004146204606F07AFE4A4631464AA806F02E
:1038500051FE4AA9204606F071FE2949204606F08D
:103860006DFE099A31464AA806F044FE4AA9204650
:1038700006F064FE4146204606F060FE3A463146B8
:103880004AA806F037FE4AA9204606F057FE1C4912
:10389000204606F053FE95F84D2031464AA806F022
:1038A00029FE4AA9204606F049FED6E0224906F044
:1038B00045FE4FF4007200214AA806F0A1F91F4B03
:1038C000D3F88C321E4A934200F0BD8030329342CE
:1038D00008BF4FF00D0800F0B980BFF34F8F1949B2
:1038E000CA6802F4E062184B1343CB60BFF34F8FFA
:1038F000FEE700BF041D0100081D0100941801002F
:10390000D41B0100101D010064000010181D0100EF
:1039100004000010201D0100000070420000204142
:10392000281D01000041001020190100301D010078
:10393000B0410010381D0100401D01007C0D001039
:10394000641C010000ED00E00400FA05B418010059
:10395000C7F810A0B368F16801223A61D9F88C2247
:1039600052F82520080E0690C1F307400590C1F3D8
:1039700007200490C9B20391190E0291C3F30741C5
:103980000191C3F307210091DBB236490AA806F082
:10399000B1FD0AA94AA806F0D1FD01351036A845A7
:1039A000D6DC4AA806F0F9FD4AA9204606F0C6FD75
:1039B00053E026222C49CAA806F017F92B492046C5
:1039C00006F0BCFD0DF22A31204606F0B7FD28496D
:1039D000204606F0B3FD0DF23A31204606F0AEFD6A
:1039E0003BE0244906F0AAFD234BB3F9702023499C
:1039F0004AA806F07FFD4AA9204606F09FFD2CE06C
:103A00001F4906F09BFD28E01E4B1A681E494AA874
:103A100006F070FD1D49204606F090FD4AA920469B
:103A200006F08CFD19E01A49D5980CF0A1FE194951
:103A30000CF0A6FF0DF06AF90546A4E69DF8533395
:103A4000002BF0D109E04FF00C08FFE7124E0025E3
:103A5000124FAA46A6F52E797AE70DF56D7DBDE8E1
:103A6000F08F00BF481D01000C100010701D0100F8
:103A7000D41B01007C1D0100A83E00109418010019
:103A8000841D0100603F0010201901008C1D010001
:103A9000000070420000204134100010004004403B
:103AA00030B5D1B0044633A801F024FD2C223A49A8
:103AB00028A806F09AF80021204606F04EFD28A915
:103AC00002F0E6FE28A902F003FE28A902F0D8FDC4
:103AD00028A902F0B3FD0546441C9DF8B0109DF8DE
:103AE000A40002F093FD28700023019302A801F0C6
:103AF00001FD2A4BDB7823B1019B43F001030193C5
:103B000003E0002101A804F07DF99DF8743023B191
:103B1000019B43F00203019303E0012101A804F09B
:103B200071F91F4BDB79412B04D1019B43F0040356
:103B3000019303E0022101A804F064F9019A1949F4
:103B40001FA806F0D7FC1FA9204606F0F7FC22A804
:103B5000FFF77CFC0022144BDDE926010CF0DEFBB4
:103B60000CF0AAFD0DF0F8F8104B1A680244104949
:103B70001FA806F0BFFC1FA9204606F0DFFC9DF839
:103B8000D6200C491FA806F0B5FC1FA9204606F058
:103B9000D5FC51B030BD00BFB4410010640000102E
:103BA000B0410010181D010000408F405C3F001024
:103BB000901D0100981D010070B506460D4606F0E7
:103BC000ECFC0446284606F0E8FC204440F273531F
:103BD000984205D82946304606F0B0FC012070BD59
:103BE000002070BD2DE9F047ADF52E7D07460C464F
:103BF00040F27352002106F003F82146384602F0E5
:103C0000EBFC8A4BD3F8443123B1A4213846FFF7AB
:103C1000D3FC06E03846FFF743FF08213846FFF79C
:103C2000CBFC834804F0E2F930B9384602F09CFE40
:103C300000213846FFF7C0FC7E4BDB78002B40F0BC
:103C4000E9807C4B93F83330002B40F0E38002F0A6
:103C500065FC002847D0784C00254FF001084FF054
:103C60002C092E46214694F82A30002B37D094F8A0
:103C70002B30012B33D14A4641A805F0B6FF4FF453
:103C80008072002101A805F0BBFFB8F1000F0CD035
:103C900001A802F069FEA12101A8FFF78DFC002216
:103CA00041A901A802F068FE04E0012241A901A88F
:103CB00002F062FE01A93846FFF77EFF68B92C22A8
:103CC0005D4B02FB0636002333735C49384606F031
:103CD00035FC384606F061FCA4E04FF000080135E1
:103CE0002C34202DBDD1384602F03EFE042138464A
:103CF000FFF762FC384602F037FEA0213846FFF796
:103D00005BFC4A4BD3F8483133B1384602F02CFE05
:103D1000A5213846FFF750FC494BDB694BB13846CB
:103D200002F022FE0A213846FFF746FC0022444BEF
:103D3000DA610626DFF81C9109F62858DFF818A189
:103D400052E0204606F029FC90B14FF4C3722146A0
:103D50004CA805F04AFF4FF4C3720021204605F03D
:103D60004FFF51464CA806F006FC002838D004E06E
:103D700004F5C374A045E4D132E04FF48072002111
:103D800001A805F03DFF2F4901A806F0D7FB4CA97B
:103D900001A806F0D3FB4DA806F0FFFB38B12A4975
:103DA00001A806F0CBFB4DA901A806F0C7FBADA802
:103DB00006F0F3FB38B1254901A806F0BFFBADA919
:103DC00001A806F0BBFB01A93846FFF7F5FE38B99C
:103DD0001A49384606F0B2FB384606F0DEFB21E011
:103DE000731E13F0FF0602D009F20444A9E7184B32
:103DF00093F8233033B1384602F0B6FD022138463D
:103E0000FFF7DAFB0D49384606F098FB384606F016
:103E1000C4FB07E0384602F0A7FD01213846FFF752
:103E2000CBFB14E70DF52E7DBDE8F08714420010A2
:103E30007411001004000010A038001008190100CF
:103E400000410010BC0F01003C1D0100D41B01000B
:103E5000640000107C0D0010A01D010010B59EB084
:103E6000044601A801F046FB40F2735200212046AF
:103E700005F0C6FE0A49204606F060FB09492046C7
:103E800006F05CFB0DF10F01204606F057FB0649DA
:103E9000204606F053FB204606F07FFB1EB010BD07
:103EA000A41D0100BC0F01000819010030B5ADF2DE
:103EB000044D4FF6FE74204D22882946684606F0D0
:103EC00019FB684603F0B6FF248822462946684657
:103ED00006F010FB684603F0ADFF49F699139C42CB
:103EE00027D1164803F0A6FF0F21084604F0ECFE88
:103EF0000F21084604F02AFF0DF1FF330DF2FD31CA
:103F0000FF2203F8012F8B42FBD1AA238DF8FE3349
:103F10008DF8FF330F21084604F0D6FE4FF480627F
:103F200069464FF47C4004F0E9FE0021642004F06F
:103F30008FF80DF2044D30BDA81D0100C01D010019
:103F40002DE9F04184B0044601230DF103024168DC
:103F5000006805F00BFE002842D09DF80370257C18
:103F6000002D3FD0A0680378BB420ED000F10802BC
:103F7000002305E01646083210F83310B94205D088
:103F800001339D42F6D100262FE006466EB3E1894B
:103F900001A804F04BF8002718E02B460DF10302AE
:103FA0006168206805F0E2FD98B1E18901A804F09C
:103FB0003DF89DF8033072789A4216D0791CA28998
:103FC000424511D3BFB26269D3550F461FFA87F835
:103FD000012501A804F00AF80028DED0002604E03C
:103FE000002602E0002600E00026304604B0BDE8CE
:103FF000F08100BF00B585B0294B93F82E3D002B12
:104000004BD0274991F82D2D01EBC20090F8340DCB
:10401000013B81F82E3D032A87BF00220B46013267
:104020001F4B83F82D2D31E0012836D11D4803F0B8
:1040300001FF684600F074FE9DF8003043B91A484D
:1040400003F0F8FE04A8042300F8043DFDF76CFA21
:104050000122134B83F8282D1FE0F0B9134803F019
:10406000E9FE684600F05CFE9DF80030012B08D1A7
:104070000F4803F0DFFE04A8032300F8043DFDF71A
:1040800053FA0022064B83F8282D06E0044B93F8E0
:10409000283D002BC8D0012BDFD005B05DF804FB14
:1040A0007C0D0010E01D0100001E0100301E01000B
:1040B000501E010008B50F4B93F82E2D042A14D87A
:1040C000013283F82E2D93F82C2D017903EBC203D6
:1040D00083F8341D0168C3F8301D032A8CBF002209
:1040E0000132044B83F82C2D08BD034803F0A2FED7
:1040F00008BD00BF7C0D0010801E0100B0B910B5D6
:1041000084B00D4B10221A6008229A610A2101A87E
:1041100003F08CFF084C03E001A803F067FF38B9F7
:10412000236813F0100FF7D1012002E00020704740
:10413000002004B010BD00BF00C00140044A9369D4
:1041400043F4803393610122024B1A70704700BF21
:1041500000C00920D41A001008B50122024BDA74FD
:10416000024803F067FE08BD64000010B01E0100A5
:1041700000B5E3B04FF4C3720021684605F040FD7E
:104180000022074BDA740749684606F0FEF96846D4
:10419000FCF798FF044803F04DFE63B05DF804FBA4
:1041A00064000010EC1E0100F01E010010B5E4B028
:1041B0004FF4C372002102A805F022FD00240B4B2E
:1041C00083F883400A4803F035FE0A4902A806F046
:1041D000DCF902A8FCF776FF8DF8044006238DF881
:1041E000053001A8FDF794F864B010BD640000101C
:1041F0002C1F0100441F010010B5E4B04FF4C3723E
:10420000002102A805F0FCFC01240B4B83F883403D
:104210000A4803F00FFE0A4902A806F0B6F902A800
:10422000FCF750FF8DF8044006238DF8053001A8F7
:10423000FDF76EF864B010BD64000010481F010067
:10424000641F010010B5E4B04FF4C372002102A84E
:1042500005F0D6FC00240B4B83F873400A4803F0AA
:10426000E9FD0A4902A806F090F902A8FCF72AFF26
:104270008DF8044005238DF8053001A8FDF748F8B6
:1042800064B010BD64000010681F0100801F0100B1
:1042900010B5E4B04FF4C372002102A805F0B0FCE1
:1042A00001240B4B83F873400A4803F0C3FD0A490D
:1042B00002A806F06AF902A8FCF704FF8DF8044092
:1042C00005238DF8053001A8FDF722F864B010BD74
:1042D00064000010841F0100A01F010010B5E4B0AD
:1042E0004FF4C372002102A805F08AFC00240C4B95
:1042F00083F863400B4803F09DFD0B4902A806F0CC
:1043000044F902A8FCF7DEFE8DF8044004238DF882
:1043100005300DEB0300FCF7FBFF64B010BD00BFE0
:1043200064000010A41F0100BC1F010010B5E4B020
:104330004FF4C372002102A805F062FC01240C4B6B
:1043400083F863400B4803F075FD0B4902A806F0A3
:104350001CF902A8FCF7B6FE8DF8044004238DF882
:1043600005300DEB0300FCF7D3FF64B010BD00BFB8
:1043700064000010C01F0100DC1F010010B5E4B094
:104380004FF4C372002102A805F03AFC00240B4B45
:1043900083F853400A4803F04DFD0A4902A806F08D
:1043A000F4F802A8FCF78EFE8DF8044003238DF884
:1043B000053001A8FCF7ACFF64B010BD640000102C
:1043C000E01F0100F81F010010B5E4B00E4803F033
:1043D00031FD4FF4C372002102A805F011FC012445
:1043E0000A4B83F853400A4902A806F0CEF802A807
:1043F000FCF768FE8DF8044003238DF8053001A812
:10440000FCF786FF64B010BDFC1F010064000010C3
:104410001820010010B5E4B00E4803F00BFD4FF476
:10442000C372002102A805F0EBFB00240A4B83F8BD
:1044300043400A4902A806F0A8F802A8FCF742FE89
:104440008DF8044002238DF8053001A8FCF760FFC9
:1044500064B010BD1C200100640000103420010075
:1044600010B5E4B00E4803F0E5FC4FF4C372002130
:1044700002A805F0C5FB01240A4B83F843400A4912
:1044800002A806F082F802A8FCF71CFE8DF8044092
:1044900002238DF8053001A8FCF73AFF64B010BD87
:1044A000382001006400001054200100134B1B79D8
:1044B0000021134A82F83310032B1DD000B5E5B05C
:1044C000104803F0B7FC4FF4C372002102A805F0B6
:1044D00097FB0D4902A806F058F802A8FCF7F2FD78
:1044E00000238DF8043001238DF8053001A8FCF776
:1044F0000FFF65B05DF804FB704700BFD41A0010D1
:10450000640000105820010070200100124B1B793C
:104510000121124A82F83310032B1CD000B5E5B0FC
:104520000F4803F087FC4FF4C372002102A805F086
:1045300067FB0C4902A806F028F802A8FCF7C2FDA8
:1045400001238DF804308DF8053001A8FCF7E0FE5A
:1045500065B05DF804FB7047D41A001064000010C9
:10456000742001009020010010B50B48036823F06F
:1045700080030360094C04F5F67104F0AFFFD4F832
:10458000F421D4F8F8319A4204D2034A136843F074
:104590008003136010BD00BF00000240D41A001059
:1045A00030B591B00C461F4D2B46202206A90020A5
:1045B00001F028FC2B46082204A9002001F022FC6F
:1045C000194B10226946002001F01CFC00258DF8D3
:1045D000385006A805F005FB8DF8390004A805F051
:1045E00000FB0F900EA8FCF7F7FD40F29511204656
:1045F00002F0E2FB0F9B9DF839200C4906A805F05C
:1046000079FF06A9204602F04FFB6946204602F0DA
:104610004BFB204602F056FB84F87355022011B084
:1046200030BD00BFBC0F01009420010098200100A4
:104630002DE9F04188B00C46344B10220DEB0201FD
:10464000002001F0DFFB04A805F0CBFAC5B2022D73
:1046500058D806462D4B10220DEB0201002001F028
:10466000D1FB04A805F0BDFA07465FFA80FE284B8F
:10467000991D01201A78AA4220D15A7893F802C0D5
:10468000BEF1000F0DD0520102F1005202F51C22C2
:10469000D2F8188000FA0CFC4CEA080CC2F818C0DA
:1046A0000CE0520102F1005202F51C22D2F81C80EB
:1046B00000FA0CFC4CEA080CC2F81CC003338B4215
:1046C000D8D1144B10226946002001F09BFB40F228
:1046D0005721204602F070FBFBB2F2B20E4904A84B
:1046E00005F008FF04A9204602F0DEFA69462046DC
:1046F00002F0DAFA204602F0E5FA002384F8733576
:10470000022000E0002008B0BDE8F081BC0F0100ED
:10471000A81E0100942001009820010030B587B048
:104720000C461D4B082204A9002001F06BFB1B4B1B
:1047300010226946002001F065FB04A805F051FA3B
:10474000174DC5F84801284602F02CFC4FF4CA71F9
:10475000204602F031FBD5F84821124904A805F0A3
:10476000C9FE04A9204602F09FFA6946204602F0DD
:104770009BFA204602F0A6FA002384F87335D5F898
:1047800048311BB9084803F055FB02E0074803F025
:1047900051FB022007B030BDBC0F01009420010086
:1047A0001442001094180100A0200100C020010054
:1047B00030B587B005460C46174B0822694601F014
:1047C00021FB164B102202A9284601F01BFB68466C
:1047D00005F007FA124DC5F82C01284602F0E2FB5D
:1047E00040F2EE31204602F0E7FAD5F82C210D49CF
:1047F000684605F07FFE6946204602F055FA02A998
:10480000204602F051FA204602F05CFA012384F8B7
:104810007335022007B030BDBC0F010094200100A9
:10482000144200109418010010B5ADF5247D144B0E
:104830000A22A1A901F0E6FAA1A805F0D2F9C4B2B2
:10484000012C19D80F4AC2F84441104602F0AAFBC5
:10485000012C06D109238DF800300B4803F0EAFA49
:1048600005E00A4803F0E6FA0A238DF800306846AE
:1048700000F002FE022000E000200DF5247D10BDB6
:10488000BC0F010014420010E0200100F0200100E4
:10489000F0B59DB004460E460222002117A805F08F
:1048A000AFF90222002116A805F0AAF90222002180
:1048B00015A805F0A5F90822002113A805F0A0F914
:1048C000484D2B46022217A9204601F09BFA2B46A1
:1048D000022216A9204601F095FA2B46022215A9BC
:1048E000204601F08FFA2B46082213A9204601F03A
:1048F00089FA3D4B102218A9204601F083FA3B4962
:1049000017A805F038FE48B1394917A805F033FE5D
:1049100020B1384803F08EFA002061E0334916A830
:1049200005F029FE48B1324916A805F024FE20B151
:10493000314803F07FFA002052E02C4915A805F019
:104940001AFE48B12A4915A805F015FE20B12B48DA
:1049500003F070FA002043E013A805F042F9054681
:10496000B0F5E15F04D9264803F064FA002037E08F
:1049700017A805F036F9234C84F8300116A805F085
:1049800030F9003018BF012084F8310115AF3846E6
:1049900005F027F9003018BF012084F83201A4F88F
:1049A0003451204602F0FEFA1B21304602F004FA90
:1049B00013AB0193009716AB17AA134903A805F090
:1049C00099FD03A9304602F06FF918A9304602F0AC
:1049D0006BF9304602F076F9002386F87335022031
:1049E0001DB0F0BDBC0F010094200100E0290100C2
:1049F000F0290100002101002421010048210100CB
:104A00006C21010014420010902101002DE9F041B9
:104A10009EB0884601A800F06DFD46461449404608
:104A200005F08CFD0DF10F01404605F087FD114D9D
:104A300005F2122405F2D2350F4F34F8023C1F2B39
:104A400007D83946304605F079FD2146304605F055
:104A500075FD0E34AC42F0D10849404605F06EFDBC
:104A6000002388F8733502201EB0BDE8F08100BF36
:104A70009C210100D41A00103C1D010008190100FE
:104A800030B585B0174C0023C4F8F431C4F8F821D0
:104A9000C4F8EC01C4F8F0112370134D284604F05B
:104AA000B5FC124AD36943F48033D36104F5F6713F
:104AB000284604F013FD2B6843F080032B6064212B
:104AC00001A803F0B3FA237813F0FF0F04D101A873
:104AD00003F08CFA0028F6D00022024B1A7005B0C1
:104AE00030BD00BFD41A00100000024000C00920F1
:104AF00000B583B09F238DF8003004220DEB020136
:104B00006846FFF7BDFF9DF80530012B0AD19DF8DF
:104B10000630402B08D19DF80700142814BF002050
:104B2000012002E0002000E0002003B05DF804FB5B
:104B300000B583B005238DF804300222694601A830
:104B4000FFF79EFF9DF8010000F0010003B05DF843
:104B500004FB00BF00B587B006238DF804300122A6
:104B600002A901A8FFF78CFF022103A803F05EFA57
:104B7000FFF7DEFF20B103A803F038FA0028F7D0D2
:104B800007B05DF804FB00BF70B5ADF5805D82B085
:104B90000D46144603238DF80430030C8DF80530C0
:104BA000030A8DF806308DF807000E1DB2B202A977
:104BB00001A8FFF765FF042E0EDD0DF10B03621E49
:104BC0000DF5805108314819A0F6FD7013F8011F4A
:104BD00002F8011F8342F9D101200DF5805D02B07A
:104BE00070BD00BF002966D02DE9F04397B0144690
:104BF000451E4B1E9BB200EB0308DFF8C490C4F3C4
:104C00000B037BBB260BB6F5807F2BD83703FFF752
:104C1000A1FF3246494606A805F06CFC06A803F041
:104C200009F920238DF804303B0C8DF805303F0A3C
:104C30008DF8067000238DF80730042269460DEBCD
:104C40000200FFF71DFF1E2103A803F0EFF9FFF795
:104C50006FFF20B103A803F0C9F90028F7D0174867
:104C600003F0E8F815F8017FFFF774FF02268DF8CE
:104C70000C60230C8DF80D30230A8DF80E308DF862
:104C80000F408DF81070052201A903A8FFF7F8FE68
:104C9000314606A803F0CAF9FFF74AFF20B106A87B
:104CA00003F0A4F90028F7D001344545A7D101202D
:104CB00017B0BDE8F0830120704700BF0016010067
:104CC000A421010010B584B00446FFF743FF502330
:104CD0008DF804300122694601A8FFF7D1FEFFF7E5
:104CE00027FF0028FBD101238DF808308DF80940FB
:104CF000022203A902A8FFF7C3FEFFF719FF00284D
:104D0000FBD104B010BD00BF08B50820FFF7DAFFE3
:104D100008BD00BF08B50020FFF7D4FF08BD00BFE5
:104D200008B50A22024904F060FF012008BD00BF57
:104D30004443001070B5A2B00C4803F07BF80C4C53
:104D400000250C4E013514F8013C04F110020192CB
:104D500000942A46314602A805F0CCFB02A803F0D5
:104D600069F85134062DEDD122B070BDBC2101008F
:104D7000D91A00101422010070B50646094C00250E
:104D80003146204605F0F7FB18B934F8023C1F2BDA
:104D900006D901350E34202DF2D14FF0FF3070BD11
:104DA000284670BDE61C001008B5094803F042F81B
:104DB000FFF7B0FF4FF462224FF4F3710548FFF79D
:104DC00011FFFFF7A1FF044803F034F8002008BDED
:104DD00048220100D81A0010682201002DE9F04194
:104DE000BCB004460D460222002137A804F008FF9B
:104DF0000222002136A804F003FF1022002132A86D
:104E000004F0FEFE4022002122A804F0F9FE4A4EE2
:104E10003346022237A9204600F0F4FF334602222F
:104E200036A9204600F0EEFF3346102232A9204674
:104E300000F0E8FF3346402222A9204600F0E2FFBE
:104E40003E4B102238A9204600F0DCFF37A804F0C2
:104E5000C8FEC6B2731EDBB2052B04D9384802F077
:104E6000E9FF002065E0044636A804F0BAFEC7B2A8
:104E7000032F59D806D1012E1DD0324802F0DAFF97
:104E8000002056E032A805F088FBC0B298B12E4B46
:104E9000D3F800E032AA002312F8011B0EEB010642
:104EA000767816F0040F03D1002B3FDC2B293FD17D
:104EB00001338342F0D1E4B2013C244E04EBC4043C
:104EC00004EBC40406EB040888F8047004363719B0
:104ED000013732A9384605F058FB3444113422A971
:104EE000204605F052FBFFF75FFFFFF723FF4FF46B
:104EF000C971284601F060FF98F8042000943B46F1
:104F0000134902A805F0F6FA02A9284601F0CCFEE2
:104F100038A9284601F0C8FE284601F0D3FE002338
:104F200085F87335022004E0002002E0002000E054
:104F300000203CB0BDE8F081BC0F010094200100CE
:104F400088220100B822010048010010D41A001084
:104F500000230100F0B5C1B0154802F06BFFFFF768
:104F6000D9FE144D4FF478224FF4E07105F504702A
:104F7000FFF738FEFFF7C8FE0F4802F05BFF05F2AF
:104F8000122405F2D2354FF6FF760C4F34F8023C6E
:104F9000B34207D022463946684605F0ABFA684668
:104FA00002F048FF0E34AC42F0D1002041B0F0BD19
:104FB0000C230100D41A0010242301003C2301001B
:104FC00030B599B00546184B0C2215A900F01AFF10
:104FD000164B102211A9284600F014FF15A8FFF760
:104FE000CBFE041E08DA15AA1149284605F082FAFC
:104FF000284602F01FFF15E0C4EBC4020D4B03EB83
:1050000042034FF6FF72A3F81022FFF7A3FF2246D8
:10501000094901A805F06EFA01A802F00BFF074844
:1050200002F008FF19B030BDBC0F01009420010050
:105030005C230100D41A00107423010090230100A6
:10504000954B5B68DBB2083B502B00F22981DFE80F
:1050500013F051002701270127012701270127010C
:1050600027016000270127012701270127012701C8
:1050700027017500270127012701270127012701A3
:1050800027011B01270127012701270127012701EC
:1050900027018B002701270127012701270127016D
:1050A0002701AE002701270127012701270127013A
:1050B00027012701270127012701270127012701B0
:1050C0002701EF00270127012701270127012701D9
:1050D00027011B012701270127012701270127019C
:1050E0002701F500270127012701270127012701B3
:1050F0002701F500694B1A68511C19601A4412798E
:10510000D2B265498A6028228A61012283F884200C
:105110007047624BD3F8883043B9604A1368591C12
:10512000116013441B79DBB25B4A936028225A4B0F
:105130009A610222594B83F884207047574B93F8A9
:105140008430DBB2012B0BD1544B1A68511C19600F
:105150001A441279D2B250498A60042283F884201A
:1051600008224D4B9A6170474C4B1A68D3F88C302B
:105170009A4209D2494A1368591C116013441B7999
:10518000DBB2454A93600EE0444BD3F890301BB13C
:105190002022414B1A6006E010223F4B1A60002289
:1051A0003E4B83F8842008223B4B9A6170473B4B6F
:1051B0001A68D3F88C309A4223D0384B1A680132DF
:1051C0001A441279D2B234498A601A6801321A60DC
:1051D0001A68D3F88C309A4204D004222F4B83F8FB
:1051E000842021E02D4B052283F88420D3F89030D1
:1051F000D3B12022284B1A600322284B83F8842045
:1052000012E0264BD3F890303BB12022224B1A609B
:105210000322224B83F8842006E005221F4B83F8EB
:10522000842010221C4B1A6008221B4B9A61704785
:10523000194B04221A6008229A617047174BD3F861
:105240009420033214498968C9B21A441171D3F801
:1052500094200132C3F89420D3F89420D3F89030EE
:105260009A4204D004220D4B83F8842006E00B4BB5
:105270000022C3F89420052283F88420064B0422E0
:105280001A6008229A6170470822034B9A6105222E
:10529000024B83F88420704700C00140A41E001018
:1052A0000822014B9A61704700C00140194B93F8E6
:1052B0009B3063B310B5174C94F89A3003EB83021C
:1052C00003EBC213234493F89C3000F8013B94F89D
:1052D0009A3003EB830103EBC11121444FF4207298
:1052E0009D3104F082FC94F89B30013B84F89B30A4
:1052F00094F89A30032B04D9002284F89A200120D4
:1053000010BD0133034A82F89A30012010BD0020FD
:10531000704700BFA41E001038B5164B93F8233D0C
:10532000012B22D8134C013384F8233D94F8213DFE
:10533000014611F8015B03EB830003EBC013E21895
:1053400082F8245D10464FF4207200F6255004F0D8
:105350004CFC94F8213D1BB1002284F8212D38BD6E
:105360000122044B83F8212D38BD034802F062FD71
:1053700038BD00BFA41E0010E423010008B502F0F0
:1053800015FEFEF737FEFBF755FFFEF77DF803F03D
:1053900083F802F05FFDFBF7AFFE4FF08043AA22D7
:1053A0009A6055229A6008BD48BB10B584B01E4B68
:1053B000002283F88420C3F894201A6060221B4BDB
:1053C0001A600A2101A802F031FE174C04E094F89B
:1053D0008430DBB2012B16D001A802F007FE0028B2
:1053E000F5D01AE00020FEF789FE012019E0013A0D
:1053F00007D091F88430DBB2052BF8D1F2E700201A
:10540000704701200DE0084B93F88430DBB2052B88
:10541000E8D04FF6FF720449EBE70020FEF76EFE7E
:10542000002004B010BD00BFA41E001000C0014049
:10543000F8B970B51C4616460E4D80220021281D75
:1054400004F0DEFB0223C5F88C30C5F890403A2307
:105450002B716E713B23AB710020FFF7A5FF00207D
:10546000FEF74CFE2246E91D049804F0BEFB2046E0
:1054700070BD7047A41E001038B5144B93F89B30D4
:10548000042B21D80146114C013384F89B3094F849
:10549000993011F8015B03EB830003EBC013E218B2
:1054A00082F89C5010464FF420729D3004F09DFB12
:1054B00094F89930032B03D9002284F8992038BD41
:1054C0000133024A82F8993038BD00BFA41E001093
:1054D00010B5ADF5227D044640F28122002101A8DD
:1054E00004F08EFB8DF8044001A8FFF7C5FF0DF511
:1054F000227D10BD08B57222014904F076FB08BD7B
:10550000A83E00102DE9F04389B081468846144634
:105510001D460A46002104F073FB214605A802F04F
:1055200085FD0024174F184E23E001230DF10702DB
:105530003946304604F01AFB00280CDD0A2102A887
:1055400002F074FD631C9DF8072009F80420434510
:105550000CD1404613E002A802F048FD38B1002CFF
:1055600005DD484602F066FCA0B208E01C4605B125
:10557000A84705A802F03AFD0028D6D0002009B0BF
:10558000BDE8F083503800100000014038B50546F2
:10559000084602F04FFC284604F0FFFF084C034683
:1055A0002A4604F6C801074804F0B0FA4FF4006335
:1055B0000122054904F6B40003F0CCFC38BD00BF5D
:1055C0009C2F00100000014090F8072030B5B1B0CA
:1055D00005461F4C1F492046FFF7D8FF1E4B41F6DA
:1055E0002C22402120A8FFF78DFF04F1100120A8F4
:1055F00005F003F840B3194802F01CFC80220DEBC3
:105600000201684604F0F1FA2021684604F0A5FF83
:10561000A0B11349013005F033FE014680B1A81C4A
:1056200004F0B3FF0F49002005F02AFE014648B1FF
:1056300005F1120004F0A9FF012006E0002004E0BB
:10564000002002E0002000E0002031B030BD00BFAB
:10565000AC230100E81501007D5300000C2401007B
:10566000D41B0100E017010030B595B004460D468B
:105670000246254901A804F03DFF01A802F0DAFB2B
:105680004022002101A804F0BBFA204901A804F03F
:1056900055FF214601A804F051FF1D4901A804F05F
:1056A0004DFF1C4901A804F049FF01A802F0C2FB0C
:1056B000194901A8FFF76AFF4FF4FA7111A802F027
:1056C000B5FC164C15E04022002101A804F098FA20
:1056D0002B464FF4FA72402101A8FFF713FF214631
:1056E00001A804F08AFF20B10D4802F0A3FB0120BD
:1056F00008E011A802F07AFC0028E4D0094802F082
:1057000099FB002015B030BD20240100C823010002
:10571000BC0F0100E0170100E8150100CC230100D7
:1057200000160100302401002DE9F041ADF56C7D3B
:10573000A44B93F89830032B00F23682DFE813F085
:1057400004006600B800EE014BA8FFF7AFFD00288B
:1057500000F02A829DF82C31012B53D0002B4DD024
:10576000022B40F02182984BD3F84431B3B1974CCF
:10577000204602F011FC964B05221A6020460122B9
:1057800000F82829934941634FF4FA710163C1621B
:1057900080F829200822826307221A600122894B9F
:1057A00083F898201C4603F1980594F8233D002BBC
:1057B00000F0FA8194F8223D03EB830103EBC1135F
:1057C000E21892F8242D8DF82C21E9184FF420725C
:1057D00001F68D410DF22D1004F007FA94F8233DE7
:1057E000013B84F8233D94F8223D1BB1002384F84B
:1057F000223DCCE1012384F8223DC8E14BA8FFF70C
:105800008BFDD1E14BA8FFF787FDCDE14BA8FFF75A
:105810004DFD002800F0C8819DF82C310A2B00F2C4
:10582000C381DFE813F00B001200C10118001D0056
:10583000C101C101C1013E0022003A00664A0DF2D9
:105840002D11084601F068FEAEE163490DF22D10FE
:10585000FFF70AFFA8E100225A4B83F89820A3E142
:105860000222584B83F898209EE1584C204602F0C3
:1058700093FB574B05221A602046012200F8282985
:10588000544941634FF4FA710163C16280F82920E1
:105890000822826307221A6086E14C4802F07CFBF2
:1058A00082E14E4802F0C6FA4D48FFF78FFE7BE1D9
:1058B0004BA8FFF7FBFC002800F076819DF82C3107
:1058C0000A2B00F27181DFE813F013011A016F0156
:1058D0000B016F0124010B006F012001EF00070194
:1058E0000121404800F078FE374BD3F8443123B112
:1058F000A4213C48FDF760FE07E03A4C2046FEF745
:10590000CFF808212046FDF757FE374802F06EFB1E
:1059100038B9344C204601F027F800212046FDF725
:105920004BFE324BDB78002B40F035812F4B93F848
:105930003330002B40F02F8100F0F0FD002860D0C4
:105940002B4C00250127DFF89C802E46214694F839
:105950002A30002B51D094F82B30012B4DD12C2222
:10596000684604F042F94FF4807200210BA804F05D
:1059700047F967B10BA800F0F7FFA1210BA8FDF7CD
:105980001BFE002269460BA800F0F6FF04E001228E
:1059900069460BA800F0F0FF0BA94046FEF70CF992
:1059A00050BB2C22124B02FB0636002333730D4CE6
:1059B0001049204604F0C2FD204604F0EEFD00B27E
:1059C0006CE000BFA41E001014420010FC3F001049
:1059D00010E000E0D15400007D5300004424010099
:1059E0000C1000109000082074110010040000102A
:1059F000A038001008190100002701352C34202D93
:105A0000A3D16B4C204600F0AFFF04212046FDF7E8
:105A1000D3FD204600F0A8FFA0212046FDF7CCFDD5
:105A2000644BD3F8483133B1204600F09DFFA521E7
:105A30002046FDF7C1FD604BDB6953B15C4C20464D
:105A400000F092FF0A212046FDF7B6FD00225A4BD6
:105A5000DA615A4B93F823303BB1554C204600F0A5
:105A600083FF02212046FDF7A7FD514C204600F0A0
:105A70007BFF5349204604F061FD5249204604F063
:105A80005DFD0DF22D11204604F058FD4E492046D3
:105A900004F054FD204604F080FD00B24B4A81B270
:105AA000434801F0DDFD7FE0494C204602F074FAE6
:105AB000484B05221A602046012200F82829464951
:105AC00041634FF4FA710163C16280F82920082212
:105AD000826307221A6067E03D4802F05DFA63E0E6
